{
  "_format": "hh-sol-artifact-1",
  "contractName": "MyEpicNFT",
  "sourceName": "contracts/MyEpicNFT.sol",
  "abi": [
    {
      "inputs": [],
      "stateMutability": "nonpayable",
      "type": "constructor"
    },
    {
      "anonymous": false,
      "inputs": [
        {
          "indexed": true,
          "internalType": "address",
          "name": "owner",
          "type": "address"
        },
        {
          "indexed": true,
          "internalType": "address",
          "name": "approved",
          "type": "address"
        },
        {
          "indexed": true,
          "internalType": "uint256",
          "name": "tokenId",
          "type": "uint256"
        }
      ],
      "name": "Approval",
      "type": "event"
    },
    {
      "anonymous": false,
      "inputs": [
        {
          "indexed": true,
          "internalType": "address",
          "name": "owner",
          "type": "address"
        },
        {
          "indexed": true,
          "internalType": "address",
          "name": "operator",
          "type": "address"
        },
        {
          "indexed": false,
          "internalType": "bool",
          "name": "approved",
          "type": "bool"
        }
      ],
      "name": "ApprovalForAll",
      "type": "event"
    },
    {
      "anonymous": false,
      "inputs": [
        {
          "indexed": false,
          "internalType": "address",
          "name": "sender",
          "type": "address"
        },
        {
          "indexed": false,
          "internalType": "uint256",
          "name": "tokenId",
          "type": "uint256"
        }
      ],
      "name": "NewEpicNFTMinted",
      "type": "event"
    },
    {
      "anonymous": false,
      "inputs": [
        {
          "indexed": true,
          "internalType": "address",
          "name": "from",
          "type": "address"
        },
        {
          "indexed": true,
          "internalType": "address",
          "name": "to",
          "type": "address"
        },
        {
          "indexed": true,
          "internalType": "uint256",
          "name": "tokenId",
          "type": "uint256"
        }
      ],
      "name": "Transfer",
      "type": "event"
    },
    {
      "inputs": [
        {
          "internalType": "address",
          "name": "to",
          "type": "address"
        },
        {
          "internalType": "uint256",
          "name": "tokenId",
          "type": "uint256"
        }
      ],
      "name": "approve",
      "outputs": [],
      "stateMutability": "nonpayable",
      "type": "function"
    },
    {
      "inputs": [
        {
          "internalType": "address",
          "name": "owner",
          "type": "address"
        }
      ],
      "name": "balanceOf",
      "outputs": [
        {
          "internalType": "uint256",
          "name": "",
          "type": "uint256"
        }
      ],
      "stateMutability": "view",
      "type": "function"
    },
    {
      "inputs": [
        {
          "internalType": "uint256",
          "name": "tokenId",
          "type": "uint256"
        }
      ],
      "name": "getApproved",
      "outputs": [
        {
          "internalType": "address",
          "name": "",
          "type": "address"
        }
      ],
      "stateMutability": "view",
      "type": "function"
    },
    {
      "inputs": [
        {
          "internalType": "address",
          "name": "owner",
          "type": "address"
        },
        {
          "internalType": "address",
          "name": "operator",
          "type": "address"
        }
      ],
      "name": "isApprovedForAll",
      "outputs": [
        {
          "internalType": "bool",
          "name": "",
          "type": "bool"
        }
      ],
      "stateMutability": "view",
      "type": "function"
    },
    {
      "inputs": [],
      "name": "makeAnEpicNFT",
      "outputs": [],
      "stateMutability": "nonpayable",
      "type": "function"
    },
    {
      "inputs": [],
      "name": "name",
      "outputs": [
        {
          "internalType": "string",
          "name": "",
          "type": "string"
        }
      ],
      "stateMutability": "view",
      "type": "function"
    },
    {
      "inputs": [
        {
          "internalType": "uint256",
          "name": "tokenId",
          "type": "uint256"
        }
      ],
      "name": "ownerOf",
      "outputs": [
        {
          "internalType": "address",
          "name": "",
          "type": "address"
        }
      ],
      "stateMutability": "view",
      "type": "function"
    },
    {
      "inputs": [
        {
          "internalType": "uint256",
          "name": "tokenId",
          "type": "uint256"
        }
      ],
      "name": "pickRandomFirstWord",
      "outputs": [
        {
          "internalType": "string",
          "name": "",
          "type": "string"
        }
      ],
      "stateMutability": "view",
      "type": "function"
    },
    {
      "inputs": [
        {
          "internalType": "uint256",
          "name": "tokenId",
          "type": "uint256"
        }
      ],
      "name": "pickRandomSecondWord",
      "outputs": [
        {
          "internalType": "string",
          "name": "",
          "type": "string"
        }
      ],
      "stateMutability": "view",
      "type": "function"
    },
    {
      "inputs": [
        {
          "internalType": "uint256",
          "name": "tokenId",
          "type": "uint256"
        }
      ],
      "name": "pickRandomThirdWord",
      "outputs": [
        {
          "internalType": "string",
          "name": "",
          "type": "string"
        }
      ],
      "stateMutability": "view",
      "type": "function"
    },
    {
      "inputs": [
        {
          "internalType": "address",
          "name": "from",
          "type": "address"
        },
        {
          "internalType": "address",
          "name": "to",
          "type": "address"
        },
        {
          "internalType": "uint256",
          "name": "tokenId",
          "type": "uint256"
        }
      ],
      "name": "safeTransferFrom",
      "outputs": [],
      "stateMutability": "nonpayable",
      "type": "function"
    },
    {
      "inputs": [
        {
          "internalType": "address",
          "name": "from",
          "type": "address"
        },
        {
          "internalType": "address",
          "name": "to",
          "type": "address"
        },
        {
          "internalType": "uint256",
          "name": "tokenId",
          "type": "uint256"
        },
        {
          "internalType": "bytes",
          "name": "_data",
          "type": "bytes"
        }
      ],
      "name": "safeTransferFrom",
      "outputs": [],
      "stateMutability": "nonpayable",
      "type": "function"
    },
    {
      "inputs": [
        {
          "internalType": "address",
          "name": "operator",
          "type": "address"
        },
        {
          "internalType": "bool",
          "name": "approved",
          "type": "bool"
        }
      ],
      "name": "setApprovalForAll",
      "outputs": [],
      "stateMutability": "nonpayable",
      "type": "function"
    },
    {
      "inputs": [
        {
          "internalType": "bytes4",
          "name": "interfaceId",
          "type": "bytes4"
        }
      ],
      "name": "supportsInterface",
      "outputs": [
        {
          "internalType": "bool",
          "name": "",
          "type": "bool"
        }
      ],
      "stateMutability": "view",
      "type": "function"
    },
    {
      "inputs": [],
      "name": "symbol",
      "outputs": [
        {
          "internalType": "string",
          "name": "",
          "type": "string"
        }
      ],
      "stateMutability": "view",
      "type": "function"
    },
    {
      "inputs": [
        {
          "internalType": "uint256",
          "name": "tokenId",
          "type": "uint256"
        }
      ],
      "name": "tokenURI",
      "outputs": [
        {
          "internalType": "string",
          "name": "",
          "type": "string"
        }
      ],
      "stateMutability": "view",
      "type": "function"
    },
    {
      "inputs": [
        {
          "internalType": "address",
          "name": "from",
          "type": "address"
        },
        {
          "internalType": "address",
          "name": "to",
          "type": "address"
        },
        {
          "internalType": "uint256",
          "name": "tokenId",
          "type": "uint256"
        }
      ],
      "name": "transferFrom",
      "outputs": [],
      "stateMutability": "nonpayable",
      "type": "function"
    }
  ],
  "bytecode": "0x608060405260405180610160016040528061012f81526020016200474661012f9139600890805190602001906200003892919062000aa7565b506040518061014001604052806040518060400160405280600681526020017f4372617a7920000000000000000000000000000000000000000000000000000081525081526020016040518060400160405280600781526020017f4c6567656e64200000000000000000000000000000000000000000000000000081525081526020016040518060400160405280600981526020017f41646f7261626c6520000000000000000000000000000000000000000000000081525081526020016040518060400160405280600c81526020017f416476656e7475726f757320000000000000000000000000000000000000000081525081526020016040518060400160405280600581526020017f4c617a792000000000000000000000000000000000000000000000000000000081525081526020016040518060400160405280600a81526020017f44616e6765726f7573200000000000000000000000000000000000000000000081525081526020016040518060400160405280600781526020017f5769636b6564200000000000000000000000000000000000000000000000000081525081526020016040518060400160405280600681526020017f59756d6d7920000000000000000000000000000000000000000000000000000081525081526020016040518060400160405280600581526020017f4d696e692000000000000000000000000000000000000000000000000000000081525081526020016040518060400160405280600581526020017f4769676120000000000000000000000000000000000000000000000000000000815250815250600990600a620002a392919062000b38565b50604051806101e001604052806040518060400160405280600981526020017f486179616275736120000000000000000000000000000000000000000000000081525081526020016040518060400160405280600b81526020017f446f6e6b65794b6f6e672000000000000000000000000000000000000000000081525081526020016040518060400160405280600781526020017f526561706572200000000000000000000000000000000000000000000000000081525081526020016040518060400160405280600881526020017f507972616d69642000000000000000000000000000000000000000000000000081525081526020016040518060400160405280600581526020017f476f6b752000000000000000000000000000000000000000000000000000000081525081526020016040518060400160405280600781526020017f4e617275746f200000000000000000000000000000000000000000000000000081525081526020016040518060400160405280600b81526020017f4e6967687472696465722000000000000000000000000000000000000000000081525081526020016040518060400160405280600481526020017f4c6565200000000000000000000000000000000000000000000000000000000081525081526020016040518060400160405280600481526020017f4e656f200000000000000000000000000000000000000000000000000000000081525081526020016040518060400160405280600681526020017f486f6e657220000000000000000000000000000000000000000000000000000081525081526020016040518060400160405280600681526020017f537079726f20000000000000000000000000000000000000000000000000000081525081526020016040518060400160405280600b81526020017f5465726d696e61746f722000000000000000000000000000000000000000000081525081526020016040518060400160405280600881526020017f50696b616368752000000000000000000000000000000000000000000000000081525081526020016040518060400160405280600781526020017f426f77736572200000000000000000000000000000000000000000000000000081525081526020016040518060400160405280600581526020017f546f746f20000000000000000000000000000000000000000000000000000000815250815250600a90600f6200063592919062000b9f565b506040518061016001604052806040518060400160405280600381526020017f47656d000000000000000000000000000000000000000000000000000000000081525081526020016040518060400160405280600581526020017f53776f726400000000000000000000000000000000000000000000000000000081525081526020016040518060400160405280600581526020017f50697a7a6100000000000000000000000000000000000000000000000000000081525081526020016040518060400160405280600981526020017f4d696c6b7368616b65000000000000000000000000000000000000000000000081525081526020016040518060400160405280600481526020017f536f64610000000000000000000000000000000000000000000000000000000081525081526020016040518060400160405280600481526020017f54616e6b0000000000000000000000000000000000000000000000000000000081525081526020016040518060400160405280600981526020017f416d62756c616e6365000000000000000000000000000000000000000000000081525081526020016040518060400160405280600781526020017f43757063616b650000000000000000000000000000000000000000000000000081525081526020016040518060400160405280600681526020017f486f6f646965000000000000000000000000000000000000000000000000000081525081526020016040518060400160405280600681526020017f446f6e757473000000000000000000000000000000000000000000000000000081525081526020016040518060400160405280600681526020017f506f7461746f0000000000000000000000000000000000000000000000000000815250815250600b90600b620008db92919062000c06565b50348015620008e957600080fd5b506040518060400160405280600981526020017f52616e646f6d4e465400000000000000000000000000000000000000000000008152506040518060400160405280600481526020017f524e46540000000000000000000000000000000000000000000000000000000081525081600090805190602001906200096e92919062000aa7565b5080600190805190602001906200098792919062000aa7565b505050620009d56040518060400160405280601e81526020017f54686973206973206d79204e465420636f6e74726163742e20576f6168210000815250620009db60201b620012481760201c565b62000e27565b62000a7b81604051602401620009f2919062000d3b565b6040516020818303038152906040527f41304fac000000000000000000000000000000000000000000000000000000007bffffffffffffffffffffffffffffffffffffffffffffffffffffffff19166020820180517bffffffffffffffffffffffffffffffffffffffffffffffffffffffff838183161783525050505062000a7e60201b60201c565b50565b60008151905060006a636f6e736f6c652e6c6f679050602083016000808483855afa5050505050565b82805462000ab59062000db1565b90600052602060002090601f01602090048101928262000ad9576000855562000b25565b82601f1062000af457805160ff191683800117855562000b25565b8280016001018555821562000b25579182015b8281111562000b2457825182559160200191906001019062000b07565b5b50905062000b34919062000c6d565b5090565b82805482825590600052602060002090810192821562000b8c579160200282015b8281111562000b8b57825182908051906020019062000b7a92919062000aa7565b509160200191906001019062000b59565b5b50905062000b9b919062000c8c565b5090565b82805482825590600052602060002090810192821562000bf3579160200282015b8281111562000bf257825182908051906020019062000be192919062000aa7565b509160200191906001019062000bc0565b5b50905062000c02919062000c8c565b5090565b82805482825590600052602060002090810192821562000c5a579160200282015b8281111562000c5957825182908051906020019062000c4892919062000aa7565b509160200191906001019062000c27565b5b50905062000c69919062000c8c565b5090565b5b8082111562000c8857600081600090555060010162000c6e565b5090565b5b8082111562000cb0576000818162000ca6919062000cb4565b5060010162000c8d565b5090565b50805462000cc29062000db1565b6000825580601f1062000cd6575062000cf7565b601f01602090049060005260206000209081019062000cf6919062000c6d565b5b50565b600062000d078262000d5f565b62000d13818562000d6a565b935062000d2581856020860162000d7b565b62000d308162000e16565b840191505092915050565b6000602082019050818103600083015262000d57818462000cfa565b905092915050565b600081519050919050565b600082825260208201905092915050565b60005b8381101562000d9b57808201518184015260208101905062000d7e565b8381111562000dab576000848401525b50505050565b6000600282049050600182168062000dca57607f821691505b6020821081141562000de15762000de062000de7565b5b50919050565b7f4e487b7100000000000000000000000000000000000000000000000000000000600052602260045260246000fd5b6000601f19601f8301169050919050565b61390f8062000e376000396000f3fe608060405234801561001057600080fd5b506004361061010b5760003560e01c806370a08231116100a2578063b88d4fde11610071578063b88d4fde146102dc578063c575757a146102f8578063c87b56dd14610328578063de9d132f14610358578063e985e9c5146103625761010b565b806370a082311461024257806395d89b4114610272578063a22cb46514610290578063b187301f146102ac5761010b565b806323b872dd116100de57806323b872dd146101aa5780632de38d68146101c657806342842e0e146101f65780636352211e146102125761010b565b806301ffc9a71461011057806306fdde0314610140578063081812fc1461015e578063095ea7b31461018e575b600080fd5b61012a600480360381019061012591906124db565b610392565b6040516101379190613185565b60405180910390f35b610148610474565b60405161015591906131a0565b60405180910390f35b6101786004803603810190610173919061252d565b610506565b60405161018591906130f5565b60405180910390f35b6101a860048036038101906101a3919061249f565b61058b565b005b6101c460048036038101906101bf9190612399565b6106a3565b005b6101e060048036038101906101db919061252d565b610703565b6040516101ed91906131a0565b60405180910390f35b610210600480360381019061020b9190612399565b610821565b005b61022c6004803603810190610227919061252d565b610841565b60405161023991906130f5565b60405180910390f35b61025c60048036038101906102579190612334565b6108f3565b6040516102699190613400565b60405180910390f35b61027a6109ab565b60405161028791906131a0565b60405180910390f35b6102aa60048036038101906102a59190612463565b610a3d565b005b6102c660048036038101906102c1919061252d565b610bbe565b6040516102d391906131a0565b60405180910390f35b6102f660048036038101906102f191906123e8565b610cdc565b005b610312600480360381019061030d919061252d565b610d3e565b60405161031f91906131a0565b60405180910390f35b610342600480360381019061033d919061252d565b610e5c565b60405161034f91906131a0565b60405180910390f35b610360610fae565b005b61037c6004803603810190610377919061235d565b6111b4565b6040516103899190613185565b60405180910390f35b60007f80ac58cd000000000000000000000000000000000000000000000000000000007bffffffffffffffffffffffffffffffffffffffffffffffffffffffff1916827bffffffffffffffffffffffffffffffffffffffffffffffffffffffff1916148061045d57507f5b5e139f000000000000000000000000000000000000000000000000000000007bffffffffffffffffffffffffffffffffffffffffffffffffffffffff1916827bffffffffffffffffffffffffffffffffffffffffffffffffffffffff1916145b8061046d575061046c826112e1565b5b9050919050565b6060600080546104839061369f565b80601f01602080910402602001604051908101604052809291908181526020018280546104af9061369f565b80156104fc5780601f106104d1576101008083540402835291602001916104fc565b820191906000526020600020905b8154815290600101906020018083116104df57829003601f168201915b5050505050905090565b60006105118261134b565b610550576040517f08c379a000000000000000000000000000000000000000000000000000000000815260040161054790613360565b60405180910390fd5b6004600083815260200190815260200160002060009054906101000a900473ffffffffffffffffffffffffffffffffffffffff169050919050565b600061059682610841565b90508073ffffffffffffffffffffffffffffffffffffffff168373ffffffffffffffffffffffffffffffffffffffff161415610607576040517f08c379a00000000000000000000000000000000000000000000000000000000081526004016105fe906133c0565b60405180910390fd5b8073ffffffffffffffffffffffffffffffffffffffff166106266113b7565b73ffffffffffffffffffffffffffffffffffffffff16148061065557506106548161064f6113b7565b6111b4565b5b610694576040517f08c379a000000000000000000000000000000000000000000000000000000000815260040161068b906132a0565b60405180910390fd5b61069e83836113bf565b505050565b6106b46106ae6113b7565b82611478565b6106f3576040517f08c379a00000000000000000000000000000000000000000000000000000000081526004016106ea906133e0565b60405180910390fd5b6106fe838383611556565b505050565b60606000610737610713846117b2565b60405160200161072391906130b1565b60405160208183030381529060405261195f565b90506009805490508161074a919061371a565b905060098181548110610786577f4e487b7100000000000000000000000000000000000000000000000000000000600052603260045260246000fd5b90600052602060002001805461079b9061369f565b80601f01602080910402602001604051908101604052809291908181526020018280546107c79061369f565b80156108145780601f106107e957610100808354040283529160200191610814565b820191906000526020600020905b8154815290600101906020018083116107f757829003601f168201915b5050505050915050919050565b61083c83838360405180602001604052806000815250610cdc565b505050565b6000806002600084815260200190815260200160002060009054906101000a900473ffffffffffffffffffffffffffffffffffffffff169050600073ffffffffffffffffffffffffffffffffffffffff168173ffffffffffffffffffffffffffffffffffffffff1614156108ea576040517f08c379a00000000000000000000000000000000000000000000000000000000081526004016108e1906132e0565b60405180910390fd5b80915050919050565b60008073ffffffffffffffffffffffffffffffffffffffff168273ffffffffffffffffffffffffffffffffffffffff161415610964576040517f08c379a000000000000000000000000000000000000000000000000000000000815260040161095b906132c0565b60405180910390fd5b600360008373ffffffffffffffffffffffffffffffffffffffff1673ffffffffffffffffffffffffffffffffffffffff168152602001908152602001600020549050919050565b6060600180546109ba9061369f565b80601f01602080910402602001604051908101604052809291908181526020018280546109e69061369f565b8015610a335780601f10610a0857610100808354040283529160200191610a33565b820191906000526020600020905b815481529060010190602001808311610a1657829003601f168201915b5050505050905090565b610a456113b7565b73ffffffffffffffffffffffffffffffffffffffff168273ffffffffffffffffffffffffffffffffffffffff161415610ab3576040517f08c379a0000000000000000000000000000000000000000000000000000000008152600401610aaa90613260565b60405180910390fd5b8060056000610ac06113b7565b73ffffffffffffffffffffffffffffffffffffffff1673ffffffffffffffffffffffffffffffffffffffff16815260200190815260200160002060008473ffffffffffffffffffffffffffffffffffffffff1673ffffffffffffffffffffffffffffffffffffffff16815260200190815260200160002060006101000a81548160ff0219169083151502179055508173ffffffffffffffffffffffffffffffffffffffff16610b6d6113b7565b73ffffffffffffffffffffffffffffffffffffffff167f17307eab39ab6107e8899845ad3d59bd9653f200f220920489ca2b5937696c3183604051610bb29190613185565b60405180910390a35050565b60606000610bf2610bce846117b2565b604051602001610bde919061304a565b60405160208183030381529060405261195f565b9050600a8054905081610c05919061371a565b9050600a8181548110610c41577f4e487b7100000000000000000000000000000000000000000000000000000000600052603260045260246000fd5b906000526020600020018054610c569061369f565b80601f0160208091040260200160405190810160405280929190818152602001828054610c829061369f565b8015610ccf5780601f10610ca457610100808354040283529160200191610ccf565b820191906000526020600020905b815481529060010190602001808311610cb257829003601f168201915b5050505050915050919050565b610ced610ce76113b7565b83611478565b610d2c576040517f08c379a0000000000000000000000000000000000000000000000000000000008152600401610d23906133e0565b60405180910390fd5b610d3884848484611992565b50505050565b60606000610d72610d4e846117b2565b604051602001610d5e9190613028565b60405160208183030381529060405261195f565b9050600b8054905081610d85919061371a565b9050600b8181548110610dc1577f4e487b7100000000000000000000000000000000000000000000000000000000600052603260045260246000fd5b906000526020600020018054610dd69061369f565b80601f0160208091040260200160405190810160405280929190818152602001828054610e029061369f565b8015610e4f5780601f10610e2457610100808354040283529160200191610e4f565b820191906000526020600020905b815481529060010190602001808311610e3257829003601f168201915b5050505050915050919050565b6060610e678261134b565b610ea6576040517f08c379a0000000000000000000000000000000000000000000000000000000008152600401610e9d90613340565b60405180910390fd5b6000600660008481526020019081526020016000208054610ec69061369f565b80601f0160208091040260200160405190810160405280929190818152602001828054610ef29061369f565b8015610f3f5780601f10610f1457610100808354040283529160200191610f3f565b820191906000526020600020905b815481529060010190602001808311610f2257829003601f168201915b505050505090506000610f506119ee565b9050600081511415610f66578192505050610fa9565b600082511115610f9b578082604051602001610f83929190612f82565b60405160208183030381529060405292505050610fa9565b610fa484611a05565b925050505b919050565b6000610fba6007611aac565b90506000610fc782610703565b90506000610fd483610bbe565b90506000610fe184610d3e565b90506000838383604051602001610ffa93929190612fa6565b60405160208183030381529060405290506000600882604051602001611021929190612fd7565b604051602081830303815290604052905060006110668361104184611aba565b60405160200161105292919061306c565b604051602081830303815290604052611aba565b905060008160405160200161107b91906130d3565b60405160208183030381529060405290506110ca6040518060400160405280601581526020017f0a2d2d2d2d2d2d2d2d2d2d2d2d2d2d2d2d2d2d2d2d0000000000000000000000815250611248565b6110f2816040516020016110de9190613006565b604051602081830303815290604052611248565b6111306040518060400160405280601581526020017f2d2d2d2d2d2d2d2d2d2d2d2d2d2d2d2d2d2d2d2d0a0000000000000000000000815250611248565b61113a3389611c78565b6111448882611c96565b61114e6007611d0a565b611171604051806060016040528060258152602001613875602591398933611d20565b7febb98688741ffa4c7589bf325de30cf7becb63de567842e1ccdb6cb949fdc82c33896040516111a292919061315c565b60405180910390a15050505050505050565b6000600560008473ffffffffffffffffffffffffffffffffffffffff1673ffffffffffffffffffffffffffffffffffffffff16815260200190815260200160002060008373ffffffffffffffffffffffffffffffffffffffff1673ffffffffffffffffffffffffffffffffffffffff16815260200190815260200160002060009054906101000a900460ff16905092915050565b6112de8160405160240161125c91906131a0565b6040516020818303038152906040527f41304fac000000000000000000000000000000000000000000000000000000007bffffffffffffffffffffffffffffffffffffffffffffffffffffffff19166020820180517bffffffffffffffffffffffffffffffffffffffffffffffffffffffff8381831617835250505050611dbf565b50565b60007f01ffc9a7000000000000000000000000000000000000000000000000000000007bffffffffffffffffffffffffffffffffffffffffffffffffffffffff1916827bffffffffffffffffffffffffffffffffffffffffffffffffffffffff1916149050919050565b60008073ffffffffffffffffffffffffffffffffffffffff166002600084815260200190815260200160002060009054906101000a900473ffffffffffffffffffffffffffffffffffffffff1673ffffffffffffffffffffffffffffffffffffffff1614159050919050565b600033905090565b816004600083815260200190815260200160002060006101000a81548173ffffffffffffffffffffffffffffffffffffffff021916908373ffffffffffffffffffffffffffffffffffffffff160217905550808273ffffffffffffffffffffffffffffffffffffffff1661143283610841565b73ffffffffffffffffffffffffffffffffffffffff167f8c5be1e5ebec7d5bd14f71427d1e84f3dd0314c0f7b2291e5b200ac8c7c3b92560405160405180910390a45050565b60006114838261134b565b6114c2576040517f08c379a00000000000000000000000000000000000000000000000000000000081526004016114b990613280565b60405180910390fd5b60006114cd83610841565b90508073ffffffffffffffffffffffffffffffffffffffff168473ffffffffffffffffffffffffffffffffffffffff16148061153c57508373ffffffffffffffffffffffffffffffffffffffff1661152484610506565b73ffffffffffffffffffffffffffffffffffffffff16145b8061154d575061154c81856111b4565b5b91505092915050565b8273ffffffffffffffffffffffffffffffffffffffff1661157682610841565b73ffffffffffffffffffffffffffffffffffffffff16146115cc576040517f08c379a00000000000000000000000000000000000000000000000000000000081526004016115c390613380565b60405180910390fd5b600073ffffffffffffffffffffffffffffffffffffffff168273ffffffffffffffffffffffffffffffffffffffff16141561163c576040517f08c379a000000000000000000000000000000000000000000000000000000000815260040161163390613240565b60405180910390fd5b611647838383611de8565b6116526000826113bf565b6001600360008573ffffffffffffffffffffffffffffffffffffffff1673ffffffffffffffffffffffffffffffffffffffff16815260200190815260200160002060008282546116a291906135b5565b925050819055506001600360008473ffffffffffffffffffffffffffffffffffffffff1673ffffffffffffffffffffffffffffffffffffffff16815260200190815260200160002060008282546116f991906134d4565b92505081905550816002600083815260200190815260200160002060006101000a81548173ffffffffffffffffffffffffffffffffffffffff021916908373ffffffffffffffffffffffffffffffffffffffff160217905550808273ffffffffffffffffffffffffffffffffffffffff168473ffffffffffffffffffffffffffffffffffffffff167fddf252ad1be2c89b69c2b068fc378daa952ba7f163c4a11628f55a4df523b3ef60405160405180910390a4505050565b606060008214156117fa576040518060400160405280600181526020017f3000000000000000000000000000000000000000000000000000000000000000815250905061195a565b600082905060005b6000821461182c578080611815906136d1565b915050600a82611825919061352a565b9150611802565b60008167ffffffffffffffff81111561186e577f4e487b7100000000000000000000000000000000000000000000000000000000600052604160045260246000fd5b6040519080825280601f01601f1916602001820160405280156118a05781602001600182028036833780820191505090505b5090505b60008514611953576001826118b991906135b5565b9150600a856118c8919061371a565b60306118d491906134d4565b60f81b818381518110611910577f4e487b7100000000000000000000000000000000000000000000000000000000600052603260045260246000fd5b60200101907effffffffffffffffffffffffffffffffffffffffffffffffffffffffffffff1916908160001a905350600a8561194c919061352a565b94506118a4565b8093505050505b919050565b6000816040516020016119729190612f6b565b6040516020818303038152906040528051906020012060001c9050919050565b61199d848484611556565b6119a984848484611ded565b6119e8576040517f08c379a00000000000000000000000000000000000000000000000000000000081526004016119df90613200565b60405180910390fd5b50505050565b606060405180602001604052806000815250905090565b6060611a108261134b565b611a4f576040517f08c379a0000000000000000000000000000000000000000000000000000000008152600401611a46906133a0565b60405180910390fd5b6000611a596119ee565b90506000815111611a795760405180602001604052806000815250611aa4565b80611a83846117b2565b604051602001611a94929190612f82565b6040516020818303038152906040525b915050919050565b600081600001549050919050565b60606000825190506000811415611ae35760405180602001604052806000815250915050611c73565b60006003600283611af491906134d4565b611afe919061352a565b6004611b0a919061355b565b90506000602082611b1b91906134d4565b67ffffffffffffffff811115611b5a577f4e487b7100000000000000000000000000000000000000000000000000000000600052604160045260246000fd5b6040519080825280601f01601f191660200182016040528015611b8c5781602001600182028036833780820191505090505b509050600060405180606001604052806040815260200161389a604091399050600181016020830160005b86811015611c305760038101905062ffffff818a015116603f8160121c168401518060081b905060ff603f83600c1c1686015116810190508060081b905060ff603f8360061c1686015116810190508060081b905060ff603f831686015116810190508060e01b90508084526004840193505050611bb7565b506003860660018114611c4a5760028114611c5a57611c65565b613d3d60f01b6002830352611c65565b603d60f81b60018303525b508484525050819450505050505b919050565b611c92828260405180602001604052806000815250611f84565b5050565b611c9f8261134b565b611cde576040517f08c379a0000000000000000000000000000000000000000000000000000000008152600401611cd590613300565b60405180910390fd5b80600660008481526020019081526020016000209080519060200190611d059291906121c0565b505050565b6001816000016000828254019250508190555050565b611dba838383604051602401611d38939291906131c2565b6040516020818303038152906040527fe3849f79000000000000000000000000000000000000000000000000000000007bffffffffffffffffffffffffffffffffffffffffffffffffffffffff19166020820180517bffffffffffffffffffffffffffffffffffffffffffffffffffffffff8381831617835250505050611dbf565b505050565b60008151905060006a636f6e736f6c652e6c6f679050602083016000808483855afa5050505050565b505050565b6000611e0e8473ffffffffffffffffffffffffffffffffffffffff16611fdf565b15611f77578373ffffffffffffffffffffffffffffffffffffffff1663150b7a02611e376113b7565b8786866040518563ffffffff1660e01b8152600401611e599493929190613110565b602060405180830381600087803b158015611e7357600080fd5b505af1925050508015611ea457506040513d601f19601f82011682018060405250810190611ea19190612504565b60015b611f27573d8060008114611ed4576040519150601f19603f3d011682016040523d82523d6000602084013e611ed9565b606091505b50600081511415611f1f576040517f08c379a0000000000000000000000000000000000000000000000000000000008152600401611f1690613200565b60405180910390fd5b805181602001fd5b63150b7a0260e01b7bffffffffffffffffffffffffffffffffffffffffffffffffffffffff1916817bffffffffffffffffffffffffffffffffffffffffffffffffffffffff191614915050611f7c565b600190505b949350505050565b611f8e8383611ff2565b611f9b6000848484611ded565b611fda576040517f08c379a0000000000000000000000000000000000000000000000000000000008152600401611fd190613200565b60405180910390fd5b505050565b600080823b905060008111915050919050565b600073ffffffffffffffffffffffffffffffffffffffff168273ffffffffffffffffffffffffffffffffffffffff161415612062576040517f08c379a000000000000000000000000000000000000000000000000000000000815260040161205990613320565b60405180910390fd5b61206b8161134b565b156120ab576040517f08c379a00000000000000000000000000000000000000000000000000000000081526004016120a290613220565b60405180910390fd5b6120b760008383611de8565b6001600360008473ffffffffffffffffffffffffffffffffffffffff1673ffffffffffffffffffffffffffffffffffffffff168152602001908152602001600020600082825461210791906134d4565b92505081905550816002600083815260200190815260200160002060006101000a81548173ffffffffffffffffffffffffffffffffffffffff021916908373ffffffffffffffffffffffffffffffffffffffff160217905550808273ffffffffffffffffffffffffffffffffffffffff16600073ffffffffffffffffffffffffffffffffffffffff167fddf252ad1be2c89b69c2b068fc378daa952ba7f163c4a11628f55a4df523b3ef60405160405180910390a45050565b8280546121cc9061369f565b90600052602060002090601f0160209004810192826121ee5760008555612235565b82601f1061220757805160ff1916838001178555612235565b82800160010185558215612235579182015b82811115612234578251825591602001919060010190612219565b5b5090506122429190612246565b5090565b5b8082111561225f576000816000905550600101612247565b5090565b60006122766122718461344c565b61341b565b90508281526020810184848401111561228e57600080fd5b61229984828561365d565b509392505050565b6000813590506122b081613818565b92915050565b6000813590506122c58161382f565b92915050565b6000813590506122da81613846565b92915050565b6000815190506122ef81613846565b92915050565b600082601f83011261230657600080fd5b8135612316848260208601612263565b91505092915050565b60008135905061232e8161385d565b92915050565b60006020828403121561234657600080fd5b6000612354848285016122a1565b91505092915050565b6000806040838503121561237057600080fd5b600061237e858286016122a1565b925050602061238f858286016122a1565b9150509250929050565b6000806000606084860312156123ae57600080fd5b60006123bc868287016122a1565b93505060206123cd868287016122a1565b92505060406123de8682870161231f565b9150509250925092565b600080600080608085870312156123fe57600080fd5b600061240c878288016122a1565b945050602061241d878288016122a1565b935050604061242e8782880161231f565b925050606085013567ffffffffffffffff81111561244b57600080fd5b612457878288016122f5565b91505092959194509250565b6000806040838503121561247657600080fd5b6000612484858286016122a1565b9250506020612495858286016122b6565b9150509250929050565b600080604083850312156124b257600080fd5b60006124c0858286016122a1565b92505060206124d18582860161231f565b9150509250929050565b6000602082840312156124ed57600080fd5b60006124fb848285016122cb565b91505092915050565b60006020828403121561251657600080fd5b6000612524848285016122e0565b91505092915050565b60006020828403121561253f57600080fd5b600061254d8482850161231f565b91505092915050565b61255f816135e9565b82525050565b61256e816135fb565b82525050565b600061257f82613491565b61258981856134a7565b935061259981856020860161366c565b6125a281613807565b840191505092915050565b60006125b88261349c565b6125c281856134b8565b93506125d281856020860161366c565b6125db81613807565b840191505092915050565b60006125f18261349c565b6125fb81856134c9565b935061260b81856020860161366c565b80840191505092915050565b600081546126248161369f565b61262e81866134c9565b94506001821660008114612649576001811461265a5761268d565b60ff1983168652818601935061268d565b6126638561347c565b60005b8381101561268557815481890152600182019150602081019050612666565b838801955050505b50505092915050565b60006126a36025836134c9565b91507f68747470733a2f2f6e6674707265766965772e30786465762e636f6465732f3f60008301527f636f64653d0000000000000000000000000000000000000000000000000000006020830152602582019050919050565b60006127096032836134b8565b91507f4552433732313a207472616e7366657220746f206e6f6e20455243373231526560008301527f63656976657220696d706c656d656e74657200000000000000000000000000006020830152604082019050919050565b600061276f601c836134b8565b91507f4552433732313a20746f6b656e20616c7265616479206d696e746564000000006000830152602082019050919050565b60006127af600a836134c9565b91507f54484952445f574f5244000000000000000000000000000000000000000000006000830152600a82019050919050565b60006127ef6024836134b8565b91507f4552433732313a207472616e7366657220746f20746865207a65726f2061646460008301527f72657373000000000000000000000000000000000000000000000000000000006020830152604082019050919050565b60006128556019836134b8565b91507f4552433732313a20617070726f766520746f2063616c6c6572000000000000006000830152602082019050919050565b60006128956063836134c9565b91507f222c20226465736372697074696f6e223a20224120686967686c79206163636c60008301527f61696d656420636f6c6c656374696f6e206f6620737175617265732e222c202260208301527f696d616765223a2022646174613a696d6167652f7376672b786d6c3b6261736560408301527f36342c00000000000000000000000000000000000000000000000000000000006060830152606382019050919050565b6000612947600b836134c9565b91507f5345434f4e445f574f52440000000000000000000000000000000000000000006000830152600b82019050919050565b6000612987602c836134b8565b91507f4552433732313a206f70657261746f7220717565727920666f72206e6f6e657860008301527f697374656e7420746f6b656e00000000000000000000000000000000000000006020830152604082019050919050565b60006129ed600d836134c9565b91507f3c2f746578743e3c2f7376673e000000000000000000000000000000000000006000830152600d82019050919050565b6000612a2d6038836134b8565b91507f4552433732313a20617070726f76652063616c6c6572206973206e6f74206f7760008301527f6e6572206e6f7220617070726f76656420666f7220616c6c00000000000000006020830152604082019050919050565b6000612a93602a836134b8565b91507f4552433732313a2062616c616e636520717565727920666f7220746865207a6560008301527f726f2061646472657373000000000000000000000000000000000000000000006020830152604082019050919050565b6000612af96029836134b8565b91507f4552433732313a206f776e657220717565727920666f72206e6f6e657869737460008301527f656e7420746f6b656e00000000000000000000000000000000000000000000006020830152604082019050919050565b6000612b5f602e836134b8565b91507f45524337323155524953746f726167653a2055524920736574206f66206e6f6e60008301527f6578697374656e7420746f6b656e0000000000000000000000000000000000006020830152604082019050919050565b6000612bc56002836134c9565b91507f227d0000000000000000000000000000000000000000000000000000000000006000830152600282019050919050565b6000612c056020836134b8565b91507f4552433732313a206d696e7420746f20746865207a65726f20616464726573736000830152602082019050919050565b6000612c456031836134b8565b91507f45524337323155524953746f726167653a2055524920717565727920666f722060008301527f6e6f6e6578697374656e7420746f6b656e0000000000000000000000000000006020830152604082019050919050565b6000612cab602c836134b8565b91507f4552433732313a20617070726f76656420717565727920666f72206e6f6e657860008301527f697374656e7420746f6b656e00000000000000000000000000000000000000006020830152604082019050919050565b6000612d116029836134b8565b91507f4552433732313a207472616e73666572206f6620746f6b656e2074686174206960008301527f73206e6f74206f776e00000000000000000000000000000000000000000000006020830152604082019050919050565b6000612d77602f836134b8565b91507f4552433732314d657461646174613a2055524920717565727920666f72206e6f60008301527f6e6578697374656e7420746f6b656e00000000000000000000000000000000006020830152604082019050919050565b6000612ddd600a836134c9565b91507f7b226e616d65223a2022000000000000000000000000000000000000000000006000830152600a82019050919050565b6000612e1d6021836134b8565b91507f4552433732313a20617070726f76616c20746f2063757272656e74206f776e6560008301527f72000000000000000000000000000000000000000000000000000000000000006020830152604082019050919050565b6000612e83600a836134c9565b91507f46495253545f574f5244000000000000000000000000000000000000000000006000830152600a82019050919050565b6000612ec3601d836134c9565b91507f646174613a6170706c69636174696f6e2f6a736f6e3b6261736536342c0000006000830152601d82019050919050565b6000612f036031836134b8565b91507f4552433732313a207472616e736665722063616c6c6572206973206e6f74206f60008301527f776e6572206e6f7220617070726f7665640000000000000000000000000000006020830152604082019050919050565b612f6581613653565b82525050565b6000612f7782846125e6565b915081905092915050565b6000612f8e82856125e6565b9150612f9a82846125e6565b91508190509392505050565b6000612fb282866125e6565b9150612fbe82856125e6565b9150612fca82846125e6565b9150819050949350505050565b6000612fe38285612617565b9150612fef82846125e6565b9150612ffa826129e0565b91508190509392505050565b600061301182612696565b915061301d82846125e6565b915081905092915050565b6000613033826127a2565b915061303f82846125e6565b915081905092915050565b60006130558261293a565b915061306182846125e6565b915081905092915050565b600061307782612dd0565b915061308382856125e6565b915061308e82612888565b915061309a82846125e6565b91506130a582612bb8565b91508190509392505050565b60006130bc82612e76565b91506130c882846125e6565b915081905092915050565b60006130de82612eb6565b91506130ea82846125e6565b915081905092915050565b600060208201905061310a6000830184612556565b92915050565b60006080820190506131256000830187612556565b6131326020830186612556565b61313f6040830185612f5c565b81810360608301526131518184612574565b905095945050505050565b60006040820190506131716000830185612556565b61317e6020830184612f5c565b9392505050565b600060208201905061319a6000830184612565565b92915050565b600060208201905081810360008301526131ba81846125ad565b905092915050565b600060608201905081810360008301526131dc81866125ad565b90506131eb6020830185612f5c565b6131f86040830184612556565b949350505050565b60006020820190508181036000830152613219816126fc565b9050919050565b6000602082019050818103600083015261323981612762565b9050919050565b60006020820190508181036000830152613259816127e2565b9050919050565b6000602082019050818103600083015261327981612848565b9050919050565b600060208201905081810360008301526132998161297a565b9050919050565b600060208201905081810360008301526132b981612a20565b9050919050565b600060208201905081810360008301526132d981612a86565b9050919050565b600060208201905081810360008301526132f981612aec565b9050919050565b6000602082019050818103600083015261331981612b52565b9050919050565b6000602082019050818103600083015261333981612bf8565b9050919050565b6000602082019050818103600083015261335981612c38565b9050919050565b6000602082019050818103600083015261337981612c9e565b9050919050565b6000602082019050818103600083015261339981612d04565b9050919050565b600060208201905081810360008301526133b981612d6a565b9050919050565b600060208201905081810360008301526133d981612e10565b9050919050565b600060208201905081810360008301526133f981612ef6565b9050919050565b60006020820190506134156000830184612f5c565b92915050565b6000604051905081810181811067ffffffffffffffff82111715613442576134416137d8565b5b8060405250919050565b600067ffffffffffffffff821115613467576134666137d8565b5b601f19601f8301169050602081019050919050565b60008190508160005260206000209050919050565b600081519050919050565b600081519050919050565b600082825260208201905092915050565b600082825260208201905092915050565b600081905092915050565b60006134df82613653565b91506134ea83613653565b9250827fffffffffffffffffffffffffffffffffffffffffffffffffffffffffffffffff0382111561351f5761351e61374b565b5b828201905092915050565b600061353582613653565b915061354083613653565b9250826135505761354f61377a565b5b828204905092915050565b600061356682613653565b915061357183613653565b9250817fffffffffffffffffffffffffffffffffffffffffffffffffffffffffffffffff04831182151516156135aa576135a961374b565b5b828202905092915050565b60006135c082613653565b91506135cb83613653565b9250828210156135de576135dd61374b565b5b828203905092915050565b60006135f482613633565b9050919050565b60008115159050919050565b60007fffffffff0000000000000000000000000000000000000000000000000000000082169050919050565b600073ffffffffffffffffffffffffffffffffffffffff82169050919050565b6000819050919050565b82818337600083830152505050565b60005b8381101561368a57808201518184015260208101905061366f565b83811115613699576000848401525b50505050565b600060028204905060018216806136b757607f821691505b602082108114156136cb576136ca6137a9565b5b50919050565b60006136dc82613653565b91507fffffffffffffffffffffffffffffffffffffffffffffffffffffffffffffffff82141561370f5761370e61374b565b5b600182019050919050565b600061372582613653565b915061373083613653565b9250826137405761373f61377a565b5b828206905092915050565b7f4e487b7100000000000000000000000000000000000000000000000000000000600052601160045260246000fd5b7f4e487b7100000000000000000000000000000000000000000000000000000000600052601260045260246000fd5b7f4e487b7100000000000000000000000000000000000000000000000000000000600052602260045260246000fd5b7f4e487b7100000000000000000000000000000000000000000000000000000000600052604160045260246000fd5b6000601f19601f8301169050919050565b613821816135e9565b811461382c57600080fd5b50565b613838816135fb565b811461384357600080fd5b50565b61384f81613607565b811461385a57600080fd5b50565b61386681613653565b811461387157600080fd5b5056fe416e204e465420772f20494420257320686173206265656e206d696e74656420746f2025734142434445464748494a4b4c4d4e4f505152535455565758595a6162636465666768696a6b6c6d6e6f707172737475767778797a303132333435363738392b2fa2646970667358221220969d2936891879c8caeb3eb9fafa01d513116a841a99aa5959e8c533ab92013064736f6c634300080000333c73766720786d6c6e733d27687474703a2f2f7777772e77332e6f72672f323030302f73766727207072657365727665417370656374526174696f3d27784d696e594d696e206d656574272076696577426f783d273020302033353020333530273e3c7374796c653e2e62617365207b2066696c6c3a2077686974653b20666f6e742d66616d696c793a2073657269663b20666f6e742d73697a653a20323470783b207d3c2f7374796c653e3c726563742077696474683d273130302527206865696768743d2731303025272066696c6c3d27626c61636b27202f3e3c7465787420783d273530252720793d273530252720636c6173733d27626173652720646f6d696e616e742d626173656c696e653d276d6964646c652720746578742d616e63686f723d276d6964646c65273e",
  "linkReferences": {},
  "deployedLinkReferences": {}
}